:020000040800F2
:1000000000000520C9A60308A1A50308A5A50308AB
:10001000B5A50308C5A50308D5A503080000000081
:100020000000000000000000000000001194030820
:10003000E5A5030800000000B1940308E7A5030844
:1000400019A7030819A7030819A7030819A7030884
:1000500019A7030819A7030819A7030819A7030874
:1000600019A7030819A7030819A7030819A7030864
:1000700019A7030819A7030819A7030819A7030854
:1000800019A7030819A7030819A7030819A7030844
:1000900019A7030819A7030819A7030819A7030834
:1000A00019A7030819A7030819A7030819A7030824
:1000B00019A7030819A7030819A7030819A7030814
:1000C00019A7030819A7030819A7030819A7030804
:1000D00019A7030819A7030819A7030819A70308F4
:1000E00001A6030819A7030819A7030819A70308FD
:1000F00019A7030819A7030819A7030819A70308D4
:1001000019A7030819A7030819A7030819A70308C3
:1001100019A7030819A7030819A7030819A70308B3
:1001200019A7030819A7030819A7030819A70308A3
:1001300019A7030819A7030819A7030819A7030893
:1001400019A7030819A7030819A7030819A7030883
:1001500019A7030819A7030819A7030819A7030873
:1001600019A7030819A7030819A7030819A7030863
:1001700019A7030819A7030819A70308000000001E
:1001800019A7030819A7030809A6030819A7030854
:1001900019A7030819A7030819A7030819A7030833
:1001A00015A6030819A7030821A6030819A7030821
:1001B00019A7030819A7030819A7030819A7030813
:0801C00019A7030819A70308A1
:1001D00010B5054C237833B9044B13B10448AFF381
:1001E00000800123237010BDA80000200000000043
:1001F000F8C0030808B5034B1BB103490348AFF32C
:10020000008008BD00000000AC000020F8C003081A
:10021000F8B501FB00F304460E469D0005F11800F9
:1002200018F0FCFF00B3114900F11802104F4FEA1B
:10023000840C0B6882600022183304603C682B44F5
:10024000C0F80CC046600B60A3420A49C8BF3B60BF
:100250000C680949C0E90422084A126822440C6863
:100260001344A342C8BF0B60F8BD00BF5802002072
:100270007C020020540200205C0200204802002082
:100280002DE9F04190462AB10546106818B153682F
:10029000042B02D00020BDE8F0819368B3EB850FFA
:1002A000F8DB18200C4618F0B9FF0028F3D0104EE8
:1002B0000122056000230F4F3168D8F808504460D0
:1002C0001831D8F800403160C0E90423C0E9024584
:1002D000094A3C68094BA14214681B68084A234438
:1002E000C8BF396014680B44A342D4DD1360D2E761
:1002F000580200207C020020540200204802002006
:100300005C02002068B143695BB9036910B40C4C0E
:10031000216843B11823CB1A23605DF8044B19F010
:1003200087B819F085B8D0E9003202FB03F3063331
:100330009B00CB1A23605DF8044B19F079B800BF1D
:100340005802002070B4DDE903430CB104698CB994
:1003500089000426D0E9024501205E6002FB0512F7
:1003600000219D602244D96099611A6070BCC3E984
:1003700004117047002070BC704700BF01FB00F003
:1003800006308000704700BFF8B501FB00F304465B
:100390000E465D0005F1140018F040FFF8B1104959
:1003A00000F114020F4F4FEA440C0B6882600022E8
:1003B0001433046002612B443C680B4A0B60A34277
:1003C0000A4912680C680A492244C8BF3B600C689D
:1003D0001344C0F80CC04660A342C8BF0B60F8BD10
:1003E000580200207C020020480200205402002015
:1003F0005C02002058B103694BB90649D0E90023DB
:1004000003FB02F30A680A33A2EB43030B6019F003
:100410000FB800BF58020020F0B44900059B00242B
:100420000227D0E9025601205F6002FB06129E609F
:100430001544DC609C611D60C3E90444F0BC704756
:1004400001FB00F0400070472DE9F04190462AB1D1
:100450000546106818B15368022B02D00020BDE891
:10046000F0819368B3EB450FF8DB14200C4618F0CD
:10047000D5FE0028F3D0104E4FF0010CD8F8003014
:1004800031680E4F1431D8F8082083603B6844600F
:1004900099420B4B05601B68C8BF39603160C0E9E9
:1004A000032C084A1468084A234414680B44A342E6
:1004B000D5DD1360D3E700BF580200207C02002086
:1004C00048020020540200205C020020F8B501FB25
:1004D00000F304460E465D0005F1140018F09EFE80
:1004E000F8B1104900F114020F4F4FEA440C0B68A9
:1004F000826000221433046002612B443C680B4A82
:100500000B60A3420A4912680C680A492244C8BF1A
:100510003B600C681344C0F80CC04660A342C8BFDF
:100520000B60F8BD580200207C0200204802002029
:10053000540200205C02002058B1036910B40C4C36
:10054000216843B11423CB1A23605DF8044B18F0E3
:100550006FBF18F06DBFD0E9003202FB03F30A331E
:100560005B00CB1A23605DF8044B18F061BF00BF3D
:100570005802002070B4DDE903430CB104698CB962
:1005800049000226D0E9024501205E6002FB051207
:1005900000219D602244D96099611A6070BCC3E952
:1005A00004117047002070BC704700BF01FB00F0D1
:1005B0000A304000704700BF40EA024242EA03634B
:1005C00043EA0120704700BF42EA036343EA012186
:1005D00041EA0040704700BF70B41C681D6986681E
:1005E00024092D0B006806FB02F204F47F041E6A46
:1005F00005F47F451B6B00EB81012C43C6F30756C6
:100600001B01344303F07F431C438C5070BC704784
:10061000F0B489001C681D69866824092D0B0068E8
:1006200006FB0212196A1B6B04F47F0405F47F4574
:10063000C1F307511B012C4303F07F430C43B3F17B
:100640007F4F44EA030405D0190E83585FEA136C08
:1006500003D101B18450F0BC70470029FBD0C1F137
:10066000FF0604F0FF17C4F3072403F0FF150CFB8B
:100670000666C3F3072301FB0777360A01FB044430
:10068000314406FB034406FB0575FE294FEA14249A
:100690004FEA15230CD80B4D03F0FF1304F0FF14A1
:1006A00035F8115005FB03F305FB04F41B0A240A7B
:1006B00003F0FF13240243EA016104F0FF240C431A
:1006C000C8E700BF58C10308F0B4156900290468E1
:1006D00010684FEA1536176A4FEA1010156B06F4CA
:1006E0007F42C7F3075600F47F004FEA051542EA40
:1006F000000205F07F4042EA060242EA000205DD00
:100700004B1E013B44F8042B591CFAD1F0BC704736
:100710002DE9F04F1368002915694FEA1313176A82
:100720004FEA1536156B03F47F03006806F47F4229
:100730004FEA0515C7F3075642EA030205F07F4367
:1007400042EA060242EA030251DD150E02F0FF17EB
:10075000C2F3072601F1FF34DFF8988014BF4FF091
:10076000010E4FF0000EC5F1FF0C05FB077705FBEE
:10077000066604E00260013C0430631C37D0FF2DA4
:10078000F8D00368190E02D1BEF1000FF2D103F0C8
:10079000FF1901FB0CC1C3F30723002DEBD0090A9D
:1007A00001FB097A05EB010901FB0363B9F1FE0FB7
:1007B0004FEA1A214FEA132301F0FF1A03F0FF1B3F
:1007C00007D838F8193003FB0AF103FB0BF3090AC9
:1007D0001B0A01F0FF111B02013C043041EA0961D0
:1007E00003F0FF230B4340F8043C631CC7D1BDE872
:1007F000F08F00BF58C103080029136BD2F804C062
:100800002DE9F04F14681569166AD2F814E0D2F891
:1008100024800768526B1CDD481E11011A01230950
:1008200002F07F4A4FEA153BC6F3075903F47F03F2
:1008300001380BF47F4B644475440A4443EA0B03CC
:10084000464443EA0A0343EA090347F8043B431CCE
:10085000E5D1BDE8F08F00BF2DE9F04F536985B0B9
:1008600000290068019316681769D2F820C0146B3C
:10087000D2F804A0D2F82490536B68DD24014D1EF9
:100880004FEA031B00940CE001B10360019B013DA2
:100890005644CC441F44009B04305B4400936B1CC3
:1008A00055D03109009B3A0BCCF3075E01F47F0869
:1008B00003F07F4302F47F4248EA020141EA030267
:1008C000110E42EA0E03FF29DFD002685FEA126EC2
:1008D000DAD003F0FF14C1F1FF08C3F30723029439
:1008E00002F0FF140EFB0888C2F307220394029C57
:1008F00001FB044E0029C9D04FEA182801FB03333D
:10090000039C414408FB04EE08FB0238FE294FEA31
:100910001E2E4FEA18280EF0FF1208F0FF130AD817
:100920000C4C34F8118008FB02FE08FB03F84FEA78
:100930001E2E4FEA18280EF0FF1E4FEA08284EEA36
:10094000016108F0FF2841EA080101609EE705B057
:10095000BDE8F08F58C10308002A0068096802F159
:10096000FF3307DD021F51F8040B013B42F8040F6F
:10097000581CF8D1704700BF002A00682DE9F041EB
:100980000C684BDD511E264D05E006B103600139B0
:1009900004304B1C42D054F8043B1E0EFF2EF5D001
:1009A00002685FEA1268F0D003F0FF1EC6F1FF0C88
:1009B00002F0FF17C3F3072308FB0CCCC2F3072296
:1009C00006FB0EEE002EE2D04FEA1C2C06FB033392
:1009D0000CFB07E766440CFB0232FE2E4FEA17239E
:1009E0004FEA122203F0FF1702F0FF1C07D835F878
:1009F000162002FB07F302FB0CF21B0A120A03F09B
:100A0000FF1312020139043043EA066602F0FF22A6
:100A10004B1C42EA060240F8042CBCD1BDE8F08130
:100A200058C10308002A30B404681D6B086811DD42
:100A30002D15511E013550F8043B01391A0E23F0D3
:100A40007F4305FB02F2120A43EA026344F8043BC7
:100A50004B1CF0D130BC7047002A00682DE9F043F0
:100A60001C6B0D6848DD2415511E244E013455F8C9
:100A7000043B03F0FF17C3F307221B0E03FB0443E1
:100A800036D0D0F800C01B0A0CF0FF19CCF30728B1
:100A9000C3F5807E5FEA1C6C03FB07F703FB02F2E1
:100AA0000CFB0EEE06D04FEA1E2E0EFB09777344A8
:100AB0000EFB082203F1FF3C3F0A120A83B1BCF18E
:100AC000FE0F07F0FF1E02F0FF184FEA0C6307D875
:100AD00036F81C2002FB0EF702FB08F23F0A120A4E
:100AE00007F0FF1712021F4302F0FF233B4303608E
:100AF000013904304B1CBAD1BDE8F08358C103085A
:100B0000002AF0B40C680568D3E90C1711DD501EFB
:100B100054F8043B0E15013839441A0E23F07F4374
:100B200006FB0222120A43EA026345F8043B431C17
:100B3000EED1F0BC704700BF002A00682DE9F047F5
:100B40000D68D3E90C464FDD511E284F55F8043B84
:100B50004FEA245803F0FF1CC3F307221B0E03F1D6
:100B600001033CD008FB0333D0F800E01B0A0EF071
:100B7000FF19CEF307285FEA1E6EC3F5807A03FBE8
:100B80000CFC03FB02F20EFB0AAA06D04FEA1A2A5B
:100B90000AFB09CC53440AFB082203F1FF3E4FEA4B
:100BA0001C2C120A8BB1BEF1FE0F0CF0FF1802F0E4
:100BB000FF194FEA0E6308D837F81E2002FB08FC25
:100BC00002FB09F24FEA1C2C120A0CF0FF1C120265
:100BD0004CEA030C02F0FF2343EA0C0303600139E3
:100BE000043034444B1CB1D1BDE8F08758C1030830
:100BF000002A00680B6810B48C6908DD991813F896
:100C0000012B54F822208B4240F8042BF7D15DF8D9
:100C1000044B7047002A00682DE9F0430C688D6989
:100C20004DDDA118274E05E007B102608C4200F1AE
:100C3000040044D014F8013B55F82320170EFF2F71
:100C4000F3D003685FEA1369EED002F0FF18C7F132
:100C5000FF0E03F0FF1CC2F3072209FB0EEEC3F3E5
:100C6000072307FB0888002FE0D04FEA1E2E07FB62
:100C700002220EFB0C8C77440EFB0323FE2F4FEA5F
:100C80001C224FEA132302F0FF1C03F0FF1E07D8BB
:100C900036F8173003FB0CF203FB0EF3120A1B0AA3
:100CA00002F0FF121B028C4200F1040042EA0767C7
:100CB00003F0FF2343EA070340F8043CBAD1BDE840
:100CC000F08300BF58C10308002A70B404681D6B8C
:100CD00008688E6914DD2D158118013510F8013B67
:100CE00056F8233088424FEA136223F07F4305FB16
:100CF00002F24FEA122243EA026344F8043BEDD1C8
:100D000070BC7047002A1B6B2DE9F04704688E69A0
:100D100008684EDD1B158518274F591C10F8013B3C
:100D200056F8233003F0FF1CC3F307221B0E03FB0E
:100D300001133AD0D4F800E01B0A0EF0FF1ACEF3EC
:100D40000729C3F580785FEA1E6E03FB0CFC03FBEA
:100D500002F20EFB088806D04FEA182808FB0ACCDE
:100D6000434408FB092203F1FF3E4FEA1C2C120A00
:100D70008BB1BEF1FE0F0CF0FF1802F0FF194FEA25
:100D80000E6308D837F81E2002FB08FC02FB09F2AC
:100D90004FEA1C2C120A0CF0FF1C12024CEA030C46
:100DA00002F0FF2343EA0C032360A84204F1040489
:100DB000B4D1BDE8F08700BF58C10308002AF0B4E1
:100DC00004688F690868D3E90C1C14DD861810F8D4
:100DD000013B0D15614457F82330B0424FEA1362CE
:100DE00023F07F4305FB02224FEA122243EA02630B
:100DF00044F8043BEBD1F0BC704700BF002A2DE95A
:100E0000F04F04688F690868D3E90C5C4EDD8618E2
:100E1000DFF89CE010F8013B4FEA255957F82330E2
:100E200003F0FF11C3F307221B0E03F1010338D0B7
:100E300009FB0333D4F800801B0A08F0FF1AC8F33B
:100E400007295FEA1868C3F5807B03FB01F103FB08
:100E500002F208FB0BBB06D04FEA1B2B0BFB0A115F
:100E60005B440BFB092203F1FF38090A120A83B124
:100E7000B8F1FE0F01F0FF1902F0FF1A4FEA086304
:100E800007D83EF8182002FB09F102FB0AF2090A12
:100E9000120A01F0FF111202194302F0FF230B4363
:100EA0002360B04204F104046544B3D1BDE8F08F7F
:100EB00058C10308F0B41C68002A1D694FEA1414D5
:100EC0001E6A4FEA15351B6B04F47F04C6F3075600
:100ED00005F47F454FEA0313006844EA050403F074
:100EE0007F43096844EA060444EA03041BDD8D18C5
:100EF000260E24F07F4704E003608D4200F10400D9
:100F000011D011F8013B002BF6D003FB0662FF2B3A
:100F10004FEA122209D047EA02628D4200F1040032
:100F200040F8042CEDD1F0BC70470460E5E700BF49
:100F30002DE9F04F1C68002A1D6983B04FEA141494
:100F40001E6A4FEA15351B6B04F47F04C6F307567F
:100F500005F47F454FEA0313006844EA050403F0F3
:100F60007F43096844EA060444EA03045ADD270E75
:100F70000A44C4F3072904F0FF1B07F10108A64641
:100F800005E0C0F800E0914200F104004AD011F8F9
:100F9000013B002BF7D0FF2B01D1BB42F1D0002F3A
:100FA000F1D003FB088304681B0A5FEA146A03FBA1
:100FB00009F503FB0BF6019510D0C3F5807C04F016
:100FC000FF15C4F307240AFB0CCC4FEA1C2C0CFBC6
:100FD0000566019D63440CFB04540194019C360A90
:100FE000250A83B1013BFE2B1FD8114C06F0FF16DA
:100FF00005F0FF1534F813401B0604FB06F604FB4E
:1010000005F5360A2D0A2D0206F0FF16914200F171
:10101000040005F0FF2543EA060343EA050340F810
:10102000043CB4D103B0BDE8F08F1B06EBE700BF72
:1010300058C103082DE9F04FD0F800C083B05868BC
:10104000002A0C68009058691D681E691F6A196B98
:10105000D3F824B001905B6B32DD4FEA031A04EB46
:101060000209090110E000FB0220000A4EEA0060BC
:10107000CCF80000009BA1455F440CF1040C1D441A
:10108000019B51441E441BD02B0914F8010B320B59
:1010900001F07F48C7F3075E03F47F0302F47F4249
:1010A0000028E5D01A43FF2842EA080242EA0E036C
:1010B0004FEA136223F07F4ED5D1CCF80030D9E748
:1010C00003B0BDE8F08F00BF2DE9F04F076887B08F
:1010D0005868002A1C68019058691D691E6AD3F877
:1010E00030C0D3F824E009685B6B02907ADD4FEAE8
:1010F000031A01EB020B4FEA0C10F1460AE03A60CA
:10110000019B8B454E4407F104071C44029B50444D
:101110001D4467D011F8013B002BF1D04FEA141E9B
:1011200000F07F4C4FEA1538C6F307520EF47F0EDD
:10113000FF2B08F47F484EEA080848EA0C0848EA02
:1011400002024FEA186801D14345D8D0B8F1000F28
:10115000D6D008F1010802F0FF1CC2F30722D7F82D
:1011600000E003FB08831B0A03FB02F203FB0CFCF9
:1011700003925FEA1E62049213D00EF0FF12C3F5D1
:101180008078CEF3072E0592049A02FB0888059A10
:101190004FEA182808FB02CC039A434408FB0E22AE
:1011A0000392039A4FEA1C2C120A8BB1013BFE2BCF
:1011B0001BD802F0FF1E0E4A0CF0FF1C32F8132061
:1011C0001B0602FB0CFC02FB0EF24FEA1C2C120A5F
:1011D00012020CF0FF1C02F0FF224CEA030C42EA60
:1011E0000C028CE707B0BDE8F08F1B06F0E700BFEC
:1011F00058C10308002A70B4046808681FDD00EBBA
:10120000420530F8022BD308A8424FEAC20103F08E
:10121000FC06C3F38113C9B243EA06034FEA122264
:1012200041EA032302F0F80643EA511346EA521258
:1012300043EA024343F07F4344F8043BE1D170BCEE
:10124000704700BF002A2DE9F0431D6B06680C684B
:1012500026DD2D1504EB420701352D0634F8021B5F
:10126000AC464FEA1128CB00CA0808F0F8005FFA34
:1012700083F9C3F3421302F0FC0E40EA581043EA2C
:101280000903C2F3811239B143EA004342EA0E0274
:1012900043EA022343EA050CA74246F804CBDDD11A
:1012A000BDE8F083002A1B6B00682DE9F04F0C6845
:1012B00063DD1B15043804EB4206314F591CC1F5A0
:1012C000807534F8023B8E4650F804CF4FEA132A5B
:1012D000DA000CF0FF190AF0F80BDB085FFA82F86D
:1012E000C2F342124BEA5A1B03F0FC0A42EA08021C
:1012F000C3F38113CCF307285FEA1C6C42EA0B426C
:1013000043EA0A030CFB055C42EA032302F0FF12E6
:101310004FEA132302FB01F203F0FF1303FB01F377
:1013200007D04FEA1C2C0CFB092201EB0C0E0CFB26
:1013300008330EF1FF3C120A1B0ABEF1000F10D059
:10134000BCF1FE0F02F0FF1803F0FF194FEA0C6E1C
:1013500007D837F81C3003FB08F203FB09F3120A25
:101360001B0A02F0FF121B02B44242EA0E0E03F007
:10137000FF2343EA0E030360A3D1BDE8F08F00BF53
:1013800058C10308002A2DE9F04705680868D3E929
:101390000C4727DD00EB420630F8023B4FEA245CA5
:1013A0003C444FEA132A0CF1010CDA00D9080AF088
:1013B000F80E5FFA82F9C2F3421201F0FC084EEA1D
:1013C0005A1E42EA0902C1F381112BB142EA0E42D0
:1013D00041EA080142EA012343EA0C63B04245F8BE
:1013E000043BD9D1BDE8F0872DE9F04F002A83B046
:1013F0000768D1F800C0D3E90CE301935DDD043F39
:101400000CEB420B3CF8023B4FEA2E5557F8041FF9
:101410001C0A681CDA0001F0FF1A04F0F806DB0869
:101420005FFA82F8C2F3421246EA5416C1F3072962
:1014300042EA080203F0FC08C3F38113C0F580748C
:1014400042EA064243EA0803090E42EA032302F095
:10145000FF1201FB04444FEA132305FB022203F0B1
:10146000FF1305FB033505D0240A04FB0A222044A0
:1014700004FB0955431E120A2D0A80B1FE2B02F00F
:10148000FF1105F0FF144FEA036008D80C4A32F848
:10149000135005FB01F205FB04F5120A2D0A02F0B8
:1014A000FF122D02019BDC4542EA000205F0FF20FD
:1014B0009E4440EA02003860A4D103B0BDE8F08F3A
:1014C00058C10308002A2DE9F0430B9E8D68D1F81E
:1014D00000800468DDE9071EDDE909C716DD501E3E
:1014E000AD100A1301384FEA2339614406FB02F2BA
:1014F000734407FB09F912144FEA294905FB0292CC
:1015000058F8222044F8042B421CEAD1BDE8F083AD
:101510002DE9F04F006885B0002A019088680968BD
:10152000DDF838A002914FEAA001039178DD02F1C5
:10153000FF394A1C4FEA820B0F9819134FEA2A32DF
:10154000039D0344119809F1FF3900FB01F1109844
:10155000B9F1FF3F824412984FEA213100FB02F2B9
:10156000A1F108014FEA22324FEA211001F00F01E8
:10157000A2F10802C1F110064FEA221402F00F0294
:1015800005FB0404C2F1100C029802FB06F601FBF5
:101590000CFC00EB840702FB01F2CCF5807550F8DF
:1015A00024407968A5EB060504F0FF1E4FEA1120E0
:1015B00001F0FF11A5EB02054FEA14280CFB01F125
:1015C00057F80B4000F0FF105F4405FB0E1108F0C8
:1015D000FF1857F8047C0CFB00F04FEA142E04F0BF
:1015E000FF144FEA172C05FB080002FB04110EF054
:1015F000FF1E07F0FF170CF0FF1C02FB0E00019A04
:1016000006FB071106FB0C004FEA112100F0FF203A
:1016100001F0FF1140EA010042F8040B01928BD166
:1016200005B0BDE8F08F00BF2DE9F04F002A85B06E
:101630000468D1F800808868DDF840A0DDF84890A3
:10164000DDE90E6B5EDD551E4FEAA00E07E001B12D
:101650002060013D5B44564404346A1C52D011980A
:101660003213191309FB02F200FB01F112140914E1
:101670000EFB021258F82200010EFF29E8D0226862
:10168000170E0197E3D000F0FF17C1F1FF0CC0F374
:101690000720029702F0FF17C2F307220397019F6A
:1016A000019207FB0CCC029F01FB07720029D0D0EE
:1016B0004FEA1C2C039F01FB00000CFB0727019A3B
:1016C00061440CFB020C3F0AFE294FEA1C2C07F078
:1016D000FF100CF0FF1209D80C4F37F811C00CFBAB
:1016E00000F70CFB02FC3F0A4FEA1C2C07F0FF1727
:1016F0004FEA0C2C47EA01610CF0FF2C41EA0C0187
:101700002160A6E705B0BDE8F08F00BF58C103080F
:101710002DE9F04F99468B6885B009689B10002A27
:10172000D0F80080DDF838B00191029340F3B18029
:10173000013302F1FF3A9B0003930EE00CB1C8F8AD
:1017400000300F9B0AF1FF3A08F104089944BAF1FE
:10175000FF3F109B9B4400F09C80119A4FEA293177
:101760004FEA2B33029802FB01F1129A019D02FB12
:1017700003F309131B130839083B0A1101F00F0189
:101780001C1103F00F03C1F1100600FB0424C3F188
:10179000100003FB06F601FB00F005EB840203FBDF
:1017A00001F355F82470C0F58071546807F0FF1CF0
:1017B0004FEA172E891B250A04F0FF140EF0FF1EB6
:1017C000009105F0FF15039900FB04F400FB05F000
:1017D00057580A44009952F8042C3D0AC91A07F0D8
:1017E000FF1705F0FF1501FB0E0001FB0C414FEA4E
:1017F000122C03FB050002F0FF120CF0FF1C03FB90
:10180000071706FB0C0006FB027700F0FF233F0AD8
:101810001C0E07F0FF17FF2C43EA07038FD0D8F800
:101820000020170E8AD003F0FF11C4F1FF0002F070
:10183000FF15C3F3072307FB0000C2F3072204FBD5
:101840000111002C3FF47DAF000A04FB033300FBC1
:101850000511044400FB0232090AFE2C4FEA122251
:1018600001F0FF1002F0FF1308D80B4A32F81420E1
:1018700002FB00F102FB03F2090A120A01F0FF1158
:10188000120241EA046402F0FF221443C8F8004047
:1018900057E705B0BDE8F08F58C103082DE9F04FB8
:1018A00083B08F68D0F80080119C4FEAA70BDDF859
:1018B00030E0256B266D2D150F68691C002E61D157
:1018C000606DB0FA80FA4FEA5A1A002A02F1FF302E
:1018D0003FDD5646BA46109D4FEA2E391A1305FBD6
:1018E00009F90F9D4FEA294905FB02F209FB0BF5A7
:1018F000171405EB22425AF82220CEB9256D216B30
:10190000D4F838C045BB656D003D18BF0125019571
:101910005FB1019D4DB10D1501F07F61C5EB2C5CF0
:10192000A56C05FB0CFC07FB0C11C1F30751013141
:10193000150E22F07F420D9F013801FB05F53B4457
:101940000E9F2D0ABE4442EA056248F8042B421C51
:10195000C1D103B0BDE8F08F656DB9F1000F04D1BE
:10196000003D18BF01250195D2E70195656B05FB88
:101970000911019D002DD8D001250195E56B05FBCE
:1019800009CCC5E74FF0000A9FE700BF2DE9F04FF3
:1019900087B08F680068159C0090256B266D4FEA14
:1019A000255C1D46BB100CF1010002930B680493EB
:1019B000002E40F0BC80636DB3FA83F35B090393A0
:1019C000002A02F1FF3E40F3AA80029B01900133FE
:1019D0009B000593109B291303984FEA2338139B10
:1019E00003FB01F1149B03FB08F80A134FEA2833A9
:1019F00020BB266D0914206BD4F838C0002E00F0EF
:101A000091805FEA284800F08D80676B666D07FB68
:101A100008007EB1E76B012607FB08CC51B14EB13F
:101A20000715A66C00F07F60C7EB2C5C06FB0CFC76
:101A300001FB0C00C0F30750411C01911098083BBA
:101A4000083A11991F11844603F00F03129802F00F
:101A50000F060D44844411110298C3F11002C6F11F
:101A6000100BCDF840C006FB02FA049A00FB0711E8
:101A7000059803FB0BFBCAF5807902EB810752F84E
:101A800021C003FB06F3A9EB0B0979684FEA1C267A
:101A9000A9EB03090CF0FF1C0A0A01F0FF183958E2
:101AA000074402F0FF1206F0FF1657F8047C0AFB09
:101AB00008F80AFB02F24FEA112A09FB0C8C01F02C
:101AC000FF1109FB06220AF0FF1A4FEA172903FB50
:101AD00001C103FB0A2207F0FF1709F0FF19019B60
:101AE0000BFB07110EF1FF3E0BFB0922090ABEF1A9
:101AF000FF3F02F0FF2201F0FF114FEA126641EAB8
:101B0000020103FB06F6009B21F07F414FEA1626F7
:101B100041EA066143F8041B00937FF45BAF07B012
:101B2000BDE8F08F666D003E18BF012676E7002302
:101B3000039345E72DE9F04F83B08F68D1F800B0EB
:101B4000119C4FEAA70A0068256B266D2D15DDF85C
:101B50003080691C002E40F0A180656DB5FA85F5D6
:101B60006D090095002A02F1FF3E6FDD0191109D85
:101B70004FEA28391A1305FB09F90F9D4FEA294648
:101B800005FB02F206FB0AF5171405EB2242009D45
:101B90005BF82220EDB9256D216BD4F838C0002DFB
:101BA00057D1656DB5F1000918BF4FF0010967B154
:101BB000B9F1000F09D00E15A56C01F07F61C6EBDD
:101BC0002C5C05FB0CFC07FB0C11C1F30751013128
:101BD0000191160E30D0019902F0FF1C0568C2F386
:101BE000072206FB01165FEA15694FEA162606FB77
:101BF0000CFC06FB02F20DD0C6F5807705F0FF1154
:101C0000C5F3072509FB07773F0A3E4407FB01CCD4
:101C100007FB05224FEA1C2C120A1EB1013EFE2EC4
:101C20001FD9360612020CF0FF1C02F0FF224CEA0C
:101C3000060C42EA0C0202600D9A0EF1FF3E0430DF
:101C40001344BEF1FF3F0E9A904490D103B0BDE81B
:101C5000F08F656DAEB9B5F1000918BF4FF00109FD
:101C6000A5E710490CF0FF1C02F0FF1231F81650E6
:101C7000360605FB0CFC05FB02F24FEA1C2C120A8F
:101C8000D0E70195656B05FB0611019D002D9CD0E9
:101C9000E56B4FF0010905FB06CC88E700250095B0
:101CA00060E700BF58C103082DE9F04F87B08F6887
:101CB0000968159DD0F800E0B8102E6B0491361518
:101CC0002C6D0190711C0291002C40F0F080696D28
:101CD000B1FA81F149090391002A02F1FF3840F37A
:101CE000CF80019A013292000592109A1813039C3A
:101CF0004FEA2239139A02FB00F0149A02FB09F909
:101D000001134FEA293224BB2E6D00142C6BD5F839
:101D100038C0002E00F0B7805FEA294900F0B38098
:101D20006F6B6E6D07FB09447EB1EF6B012607FBFD
:101D300009CC50B14EB12715AE6C04F07F64C7EBEF
:101D40002C5C06FB0CFC00FB0C44C4F30754601C29
:101D500002900839083A019C02F00F0B0811121189
:101D600001F00F01CBF1100A04FB0202049801FB01
:101D70000AFAC1F1100600EB820950F822000BFBB1
:101D800006F6CAF58074D9F804200BFB01F1A41BF8
:101D9000070A4FEA122C02F0FF12641A00F0FF1B30
:101DA0000AFB02F20CF0FF1C07F0FF170092059AE5
:101DB0000AFB0CFC59F802009144009A04FB07CC82
:101DC00004FB0B2B59F8042C4FEA102900F0FF10EC
:101DD0004FEA122A02F0FF1209F0FF1901FB00BBC3
:101DE0000AF0FF1A01FB09CC06FB02BB06FB0ACA7C
:101DF0004FEA1B2B0AF0FF2A0BF0FF125FEA1A6171
:101E00004AEA02022ED00298DEF8004001FB0001EF
:101E100002F0FF10270EC2F307224FEA112101FB47
:101E200000F001FB02F20DD0C1F5807604F0FF1C3A
:101E3000C4F3072407FB0666360A314406FB0C0090
:101E400006FB0422000A120A19B10139FE291FD922
:101E50000906120200F0FF1002F0FF2208430243BD
:101E6000CEF80020119A08F1FF3812990EF1040EF5
:101E70001344109AB8F1FF3F0A4410927FF435AF33
:101E800007B0BDE8F08F6E6D003E18BF012650E729
:101E9000084C00F0FF1002F0FF1234F81140090660
:101EA00004FB00F004FB02F2000A120AD1E7002151
:101EB000039111E758C10308002A2DE9F0470C9D52
:101EC000D1F80090D1F81880D1F808E00468DDE975
:101ED000081CDDE90A7617DD501E0A1301384FEAA7
:101EE000233A394405FB02F2634406FB0AFA121452
:101EF0004FEA2A4A0EFB029212F80A2058F82220D2
:101F000044F8042B421CE8D1BDE8F0872DE9F04FDE
:101F1000006885B0D1F81880002A009008688968A8
:101F2000DDF838A0019002917FDD02F1FF394A1CF3
:101F300003920F991D134FEA2A32029C0B44119908
:101F4000039F09F1FF3901FB05F51099B9F1FF3F36
:101F50008A4412994FEA253501FB02F2A5F10805E2
:101F60004FEA22324FEA251105F00F05A2F10802CF
:101F7000C5F110064FEA221002F00F0204FB001018
:101F8000019CC2F1100E02FB06F604EB000102FBFD
:101F900005F205FB0EFE205C4D7801EB070BCEF53C
:101FA000807C58F8200058F82550C95DACEB060439
:101FB0004FEA152C05F0FF15A4EB020458F8211088
:101FC0000EFB05F51BF801BC4FEA10270CF0FF1CB7
:101FD00000F0FF1058F82BB00EFB0CFC07F0FF17B9
:101FE00004FB00504FEA112E01F0FF114FEA1B25B0
:101FF00004FB07CC0EF0FF1E02FB01000BF0FF1BE1
:1020000002FB0ECC05F0FF1506FB0B00009A06FB49
:1020100005CC4FEA10200CF0FF2C00F0FF104CEA2A
:10202000000042F8040B009283D105B0BDE8F08FA8
:102030002DE9F04F002A85B00468D1F800E0D1F80E
:102040001880D1F80890DDF840A0DDE90E6B5EDD68
:10205000551E07E001B12060013D5B445644043445
:102060006A1C54D012983213191300FB02F2119813
:10207000121400FB01F109FB02E20914525C58F84A
:102080002200010EFF29E6D02268170E0197E1D049
:1020900000F0FF17C1F1FF0CC0F30720029702F018
:1020A000FF17C2F307220397019F019207FB0CCC95
:1020B000029F01FB07720029CED04FEA1C2C039F20
:1020C00001FB00000CFB0727019A61440CFB020C8A
:1020D0003F0AFE294FEA1C2C07F0FF100CF0FF12FC
:1020E00009D80C4F37F811C00CFB00F70CFB02FCB1
:1020F0003F0A4FEA1C2C07F0FF174FEA0C2C47EA67
:1021000001610CF0FF2C41EA0C012160A4E705B04D
:10211000BDE8F08F58C103082DE9F04F002A85B0C3
:10212000D0F80090D1F81880086889680190029171
:1021300040F3B98002F1FF3A4A1C039210E00CB15F
:10214000C9F800200F9A0AF1FF3A109909F1040921
:1021500013440E9ABAF1FF3F0A440E9200F0A38096
:10216000119918130E9A01FB00F012991213029C98
:102170000013039F01FB02F208381213011100F053
:102180000F00083AC0F11006151102F00F0204FB0F
:102190000515019CC2F1100E02FB06F6611914F838
:1021A00005B000FB0EFE4D7802FB00F2CEF5807C00
:1021B00058F82B0058F8255001EB070BACEB060440
:1021C000C95D4FEA152C1BF801BC58F82110070A0D
:1021D00005F0FF150CF0FF1CA41A58F82BB00EFBED
:1021E00005F500F0FF100EFB0CFC07F0FF174FEA9F
:1021F000112E04FB005004FB07CC4FEA1B250EF008
:10220000FF1E01F0FF1105F0FF150BF0FF1B02FB95
:102210000ECC02FB010006FB05C206FB0B0002F020
:10222000FF22000A140E00F0FF10FF2C42EA000209
:1022300086D0D9F800100F0E81D002F0FF10C4F143
:10224000FF0501F0FF16C2F3072207FB0555C1F396
:10225000072104FB0000002C3FF474AF2D0A04FB9F
:10226000022205FB06002C4405FB0121000AFE2C7E
:102270004FEA112100F0FF1501F0FF1208D80B49B9
:1022800031F8141001FB05F001FB02F1000A090A04
:1022900000F0FF10090240EA046001F0FF21014351
:1022A000C9F800104EE705B0BDE8F08F58C103082B
:1022B0002DE9F04F83B0D0F800800F68119DD1F860
:1022C00018A02E6B2C6D3615D1F808B0DDF830E073
:1022D000701C002C61D1696DB1FA81F1490900913E
:1022E000002A02F1FF343FDD10994FEA2E391A130C
:1022F00001FB09F90F994FEA294901FB02F209FB99
:102300000BF107EB22461214715C009E5AF8211063
:10231000CEB92E6D286BD5F838C046BB6E6D003E29
:1023200018BF012601965AB1019E4EB1061500F064
:102330007F60C6EB2C5CAE6C06FB0CFC02FB0C0059
:10234000C0F3075001300A0E0D9E21F07F41013C81
:1023500000FB02F233440E9E120AB64441EA0261C7
:10236000621C48F8041BBFD103B0BDE8F08F6E6D4E
:10237000B9F1000F04D1003E18BF01260196D2E743
:1023800001966E6B06FB0900019E002ED8D0012637
:102390000196EE6B06FB09CCC5E7002100919FE793
:1023A0002DE9F04F89B00068179DCDE901302C6B05
:1023B0000B6824152E6D06938B68601C8C69049342
:1023C000002E40F0C6806B6DB3FA83F35B09059372
:1023D000002A02F1FF3E40F3B480049B03900133D6
:1023E0000793019B059E1913129B4FEA2338159BF7
:1023F00003FB01F1169B03FB08F80A134FEA28338D
:1024000026BB2E6D0914286BD5F838C0002E00F0BD
:102410009B805FEA284800F097806F6B6E6D07FB2A
:1024200008007EB1EF6B012607FB08CC51B14EB11D
:102430000715AE6C00F07F60C7EB2C5C06FB0CFC54
:1024400001FB0C00C0F30750411C0391129F083A96
:102450000199083B139EB846149F0EF1FF3E31448C
:102460001E11B844049F0191111103F00F0302F0F3
:102470000F0207FB0616069FC3F1100CCDF848802B
:10248000B91917F8068002FB0CFC079F4E78C2F1C1
:10249000100ACCF58079C81954F8266003FB0AFAB3
:1024A000C95D03FB02F34FEA162B54F8282054F8B9
:1024B000211006F0FF1810F8017C160AA9EB0A0992
:1024C0000BF0FF1B0CFB08F854F82770A9EB03096D
:1024D0000CFB0BFB06F0FF164FEA112C02F0FF126B
:1024E00001F0FF1109FB06B60CF0FF1C09FB02828C
:1024F0004FEA172903FB0C6C07F0FF1703FB0121C0
:1025000009F0FF19039BBEF1FF3F0AFB07110AFB0D
:1025100009CC4FEA11210CF0FF2C01F0FF114FEA1A
:102520001C684CEA010103FB08F8029B21F07F4183
:102530004FEA182841EA086143F8041B02937FF42C
:1025400050AF09B0BDE8F08F6E6D003E18BF012698
:102550006CE7002305933BE72DE9F04F85B0D1F8F8
:1025600000B0D1F818A0139D89682C6B2E6D27152B
:10257000DDF8388004680291781C002E40F0A280BB
:10258000696DB1FA81F149090191002A02F1FF3E1A
:1025900070DD0390129A4FEA2839191302FB09F9EA
:1025A000119A4FEA294702FB01F1029A0BEB2146EF
:1025B00007FB02F20914B25C019E5AF82220EEB920
:1025C0002E6D286BD5F838C0002E56D16E6DB6F141
:1025D000000918BF4FF0010961B1B9F1000F09D02E
:1025E0000715AE6C00F07F60C7EB2C5C06FB0CFCA3
:1025F00001FB0C00C0F30750411C0391170E2FD0B4
:10260000039902F0FF1CC2F3072207FB01172168A0
:102610003F0A5FEA116907FB0CFC07FB02F20DD0D1
:10262000C7F5807601F0FF10C1F3072109FB0666AC
:10263000360A374406FB00CC06FB01224FEA1C2C6D
:10264000120A1FB1013FFE2F1FD93F0612020CF0E4
:10265000FF1C02F0FF224CEA070C42EA0C02226047
:102660000F9A0EF1FF3E04341344BEF1FF3F109A5F
:1026700090448FD105B0BDE8F08F6E6DAFB9B6F163
:10268000000918BF4FF00109A6E710490CF0FF1C24
:1026900002F0FF1231F817103F0601FB0CFC01FBA2
:1026A00002F24FEA1C2C120AD0E703966E6B06FB6F
:1026B0000700039E002E9DD0EE6B4FF0010906FB34
:1026C00007CC89E7002101915FE700BF58C10308EB
:1026D0002DE9F04F87B098460068159D00902E6B4D
:1026E0002C6D36158869731C02930B6804938B68F4
:1026F0000193002C40F0F9806B6DB3FA83F35B0912
:102700000393002A02F1FF3E40F3D880019B01337E
:102710000593109B4FEA2831039C4FEA2339139B02
:1027200003FB01F1149B03FB09F90A134FEA293358
:1027300024BB2E6D09142C6BD5F838C0002E00F088
:10274000C0805FEA294900F0BC806F6B6E6D07FBAB
:1027500009447EB1EF6B012607FB09CC51B14EB1A4
:102760002715AE6C04F07F64C7EB2C5C06FB0CFCF9
:1027700001FB0C44C4F30754611C0291083A083B66
:10278000019C03F00F0611111B1102F00F02C6F19C
:10279000100A04FB0313049902FB0AFAC2F11007A2
:1027A00001EB030CC95C06FB07F7CAF580749CF8C3
:1027B000013006FB02F2A4EB070950F8211050F893
:1027C0002360059BA9EB02044FEA162906F0FF16C9
:1027D0000CEB030B1CF803300AFB06F64FEA112C36
:1027E00050F8233009F0FF191BF801BC01F0FF116C
:1027F0000AFB09F90CF0FF1C04FB016150F82B6087
:102800004FEA132B04FB0C9903F0FF134FEA162A2F
:102810000BF0FF1B06F0FF1602FB03110AF0FF1A74
:1028200002FB0B9907FB061107FB0A9A090A0AF03B
:10283000FF2A01F0FF135FEA1A624AEA03032DD070
:102840000299009C02FB011203F0FF112468C3F3FC
:102850000723120A270E02FB01F102FB03F30DD03E
:10286000C2F5807604F0FF1CC4F3072407FB06665C
:10287000360A324406FB0C1106FB0433090A1B0A14
:102880001AB1013AFE2A21D912061B0201F0FF11EA
:1028900003F0FF231143009A0B431360119B0EF1C9
:1028A000FF3E129A9844109BBEF1FF3F13441093D1
:1028B000009B03F1040300937FF42BAF07B0BDE846
:1028C000F08F6E6D003E18BF012647E7084C01F0FF
:1028D000FF1103F0FF1334F81240120604FB01F15C
:1028E00004FB03F3090A1B0ACFE70023039308E75D
:1028F00058C103082DE9F04F8BB01F460B68DDF877
:1029000064A0D0F80090DAF85040D1F80880DDF8E3
:1029100050C00293002C40F0F680DAF85430B3FA3D
:1029200083F67609DAF80010002ADAF8103002F19E
:10293000FF3BDAF820004FEA11114FEA133301F49C
:102940007F01C0F3075403F47F43DAF8300043EA11
:1029500001034FEA001043EA040300F07F4043EA1A
:10296000000140F38B80CDE90368189A4FEA2C35BB
:102970003B1302FB05F5179A02FB03F3029A2D1491
:1029800002EB2340049A1B1405FB02F2825C0398BD
:10299000002864D1DAF80800DAF830100590DAF887
:1029A0001800DAF800400690DAF82800DAF810602B
:1029B0000790DAF83800DAF820E00890DAF85000EA
:1029C000019100286AD0002D68D0DAF8040001993E
:1029D00000FB0544DAF8140000FB0566DAF8240071
:1029E00000FB05EEDAF8340000FB0511DAF85400BC
:1029F000019100B3012008990990DAF80C00804693
:102A0000059808FB05000590DAF81C00804606983A
:102A100008FB05000690DAF82C008046079808FBB2
:102A200005000790DAF83C0000FB0510089013B190
:102A3000099800283CD1B04601992409CEF3075EDD
:102A40004FEA183804F47F04090108F47F4801F0C4
:102A50007F4144EA080444EA0E0E4EEA010182B9BD
:102A6000C9F80020159B0BF1FF3B09F104091F4435
:102A7000BBF1FF3F169B9C447FF477AF0BB0BDE8E2
:102A8000F08FFF2A11D00B0E21F07F4002FB0332A2
:102A9000120A40EA0260C9F80000E3E7DAF854508D
:102AA000281E18BF01200990C1E7C9F80010D9E716
:102AB000251504F07F640199301506F07F680994AC
:102AC000069EDAF84840C0EB265004FB03F30E15CF
:102AD000059C01F07F6103FB0088C5EB2454019144
:102AE0004FEA2E5507990EF07F6EC5EB21550999D7
:102AF00003FB0414089903FB05EEC6EB215601996C
:102B000003FB061199E700260CE700BF2DE9F04F03
:102B10008BB09A460B68DDF864E00493DEF8504011
:102B20008B68D0F800900293002C40F02481DEF8EE
:102B30005430B3FA83F35B090393DEF80010002AE4
:102B4000DEF8103002F1FF3BDEF820004FEA1111F1
:102B50004FEA1333C0F3075501F47F0103F47F43B9
:102B6000DEF8300043EA01034FEA001043EA0503B0
:102B700000F07F4043EA000440F3E580029B0594A7
:102B800001330193149B4FEA2A3C039A1F13179BAE
:102B900003FB0CFC189B03FB07F74FEA2C383B1395
:102BA000002A40F09080DEF808404FEA2C4CDEF816
:102BB00050100594DEF81840DEF800000694DEF8A8
:102BC0002840DEF810200794DEF83840DEF8205068
:102BD000DEF830600894002900F0C6803F1400F051
:102BE000C380DEF80410DEF8144001FB0700DEF8B5
:102BF000241004FB0722DEF8344001FB0755DEF801
:102C0000541004FB076600294DD00121DEF80C406A
:102C100009912146059C01FB07440594DEF81C4000
:102C20002146069C01FB07440694DEF82C40214611
:102C3000079C01FB07440794DEF83C402146089CB2
:102C400001FB07440894BCF1000F2CD0099951B343
:102C5000071500F07F601415DEF84810099002F0A7
:102C60007F62059801FB0CF14FEA265C06F07F6657
:102C7000C7EB20570698C4EB205005972F15059CED
:102C8000069005F07F650798C7EB2057099801FB70
:102C90000400089C01FB0755CCEB245C069C01FB5F
:102CA0000C6601FB04220009C5F30755120B00F462
:102CB0007F00360102F47F4206F07F461043054351
:102CC00045EA06020592083BA8F10808029903F0BC
:102CD0000F054FEA28121B1108F00F08C5F110006C
:102CE000049C01FB0323C8F1100108FB00F0019FC5
:102CF000E61805FB01F1C0F5807205FB08F8757850
:102D0000F719521AE35C00FB05F0019CA2EB0802E4
:102D100017F8017C365D03FB020008FB060001FB8F
:102D200007073F0A12D1C9F80070159B0BF1FF3B52
:102D3000149A09F104099A44169BBBF1FF3F1A4407
:102D400014927FF41FAF0BB0BDE8F08FFF2F059BEF
:102D500007D0190E23F07F4307FB01173F0A43EA10
:102D60000763C9F80030E0E7DEF85410003918BFF7
:102D70000121099167E700230393DEE62DE9F04F77
:102D800089B0D0F800B0CDE90123DDF85CA00A4697
:102D9000009192680968DAF85030DDF808C00D46F5
:102DA000019CDDF848800292002B40F03081DAF877
:102DB0005430B3FA83F35B090193DAF80020002C56
:102DC000DAF8103004F1FF394FEA1212DAF8201065
:102DD0004FEA1333DAF8300002F47F02C1F30751EF
:102DE00003F47F434FEA001043EA020300F07F4000
:102DF00041EA030141EA000140F3BC80CDF800B094
:102E0000E646CB46A946169A4FEA283C4FEA2E33AF
:102E100002FB0CFC159A4FEA2C4C02FB03F3029ABE
:102E200009EB23400CFB02F21B14805C019A002A80
:102E300040F08A80DAF80870DAF850600397DAF820
:102E40001870DAF800500497DAF82870DAF81020D1
:102E50000597DAF83870DAF82010DAF8304006977B
:102E6000002E00F0BE80BCF1000F00F0BA80DAF84E
:102E70000460DAF8147006FB0C55DAF8246007FBDE
:102E80000C22DAF8347006FB0C11DAF8546007FBF8
:102E90000C44002E4AD00126DAF80C7007963E4604
:102EA000039F06FB0C770397DAF81C703E46049FDD
:102EB00006FB0C770497DAF82C703E46059F06FB5C
:102EC0000C770597DAF83C703E46069F06FB0C77B8
:102ED00006975BB3079E4EB32F1505F07F6C161552
:102EE000DAF8485002F07F6205FB03F3039D079276
:102EF000049AC7EB25550F1501F07F61C6EB2256EA
:102F0000059A03FB05C5C7EB225203962615039FBE
:102F1000049204F07F64069AC6EB2256079A03FBDC
:102F20000722049F03FB064403FB07112D09C1F38D
:102F30000751120B05F47F05240102F47F4204F0CF
:102F40007F44154329432143FF284FEA116514D1DB
:102F5000A84212D1009B1960139B0BF1FF3B9E44CA
:102F6000149BBBF1FF3F9844009B03F104030093C3
:102F70007FF449AF09B0BDE8F08F0028ECD0002DF8
:102F8000EAD00135009C01F0FF12C1F30723246849
:102F900000FB0550260E4FEA102000FB02F200FB5A
:102FA00003F30DD0C0F5807504F0FF1CC4F30724B3
:102FB00006FB05552D0A284405FB0C2205FB0433AE
:102FC000120A1B0A18B10138FE2811D900061B028B
:102FD00002F0FF1203F0FF2302431343009A136031
:102FE000BAE7DAF85460003E18BF0126079670E78A
:102FF00003F0FF14074B02F0FF1233F81030000605
:1030000003FB02F203FB04F3120A1B0ADFE70023AF
:103010000193D2E658C103082DE9F04F8BB09946D1
:103020000B68DDF864E00393DEF850408B68D0F85D
:1030300000B00193002C40F06A81DEF85430B3FAFE
:1030400083F35B090293DEF80010002ADEF81030EB
:1030500002F1FF3ADEF820004FEA11114FEA133374
:10306000C0F3075501F47F0103F47F43DEF830001D
:1030700043EA01034FEA001043EA050300F07F40F2
:1030800043EA000440F3F580019B013304935B465F
:10309000D3469A46149B4FEA293C02994FEA2338BB
:1030A000179B03FB0CFC189B03FB08F84FEA2C3220
:1030B0004FEA2833002940F09880DEF808704FEA84
:1030C0002C4CDEF850600097DEF81870DEF80050E7
:1030D0000597DEF82870DEF810100697DEF83870D5
:1030E000DEF82000DEF830400797002E00F0F9806F
:1030F0005FEA284800F0F580DEF80460DEF814701E
:1031000006FB0855DEF8246007FB0811DEF8347072
:1031100006FB0800DEF8546007FB0844002E56D07A
:103120000126DEF80C7008963E46009F06FB0877E5
:103130000097DEF81C703E46059F06FB0877059752
:10314000DEF82C703E46069F06FB0877079E069722
:10315000DEF83C7007FB08660796BCF1000F36D01E
:10316000089E002E33D0DEF848602F1505F07F68EA
:1031700008960E15089D01F07F61099605FB0CF677
:10318000009DC7EB2555071500F07F6006FB058500
:103190000897099F0990BC46059FCCEB275C089FC8
:1031A0003846069FCDF800C04FEA245CC0EB275795
:1031B000079804F07F640597CCEB205C009F09988A
:1031C00006FB0C4406FB0711059F06FB07002D09B3
:1031D000C0F30750090B05F47F05240101F47F417A
:1031E00004F07F440D4328430443083B083A019808
:1031F00003F00F0C11111B1102F00F02CCF110079C
:10320000039D00FB0313C2F1100602FB07F7E81849
:103210000CFB06F6C7F58071ED5C0CFB02F290F832
:1032200001C00095891B049D07FB0CF7891A10F853
:1032300005802844009D10F8010C05FB017102FB7C
:10324000081106FB0011090AFF2915D1230E994226
:1032500012D1CAF80040159B0BF1FF3B169A0AF1F8
:10326000040A9944149BBBF1FF3F134414937FF469
:1032700011AF0BB0BDE8F08F0029ECD0250E002D6A
:10328000E9D00135DAF8000004F0FF12C4F3072397
:1032900001FB0555060E4FEA152505FB02F205FB5D
:1032A00003F30DD0C5F5807100F0FF17C0F30720C0
:1032B00006FB0111090A0D4401FB072201FB003343
:1032C000120A1B0A1DB1013DFE2D11D92D061B024C
:1032D00002F0FF1203F0FF232A431343CAF8003021
:1032E000B9E7DEF85460003E18BF0126089634E7BF
:1032F00003F0FF11074B02F0FF1233F815302D06D3
:1033000003FB02F203FB01F3120A1B0ADFE70023AF
:10331000029398E658C10308002A2DE9F04F0D9E4C
:103320008D68D1F800800468DDE9091EDDE90BC76E
:1033300030DD501E6D100A1301384FEA2339614405
:1033400006FB02F2734407FB09F912144FEA2949FC
:1033500005FB029238F812904FEAD90A4FEAC90BDE
:103360000AF0FC02CAF3811A5FFA8BFB4AEA0202F6
:103370004FEA19294BEA022209F0F80A42EA5B12E5
:103380004AEA591942EA094242F07F4244F8042BC2
:10339000421CD0D1BDE8F08F2DE9F04F006885B018
:1033A000002A019088680968DDF838A002914FEA88
:1033B0006001039140F3878002F1FF394A1C4FEA14
:1033C000420B0F994FEA233E4FEA2A3203980B44EF
:1033D000119909F1FF3901FB0EFE1099B9F1FF3F78
:1033E0008A4412994FEA2E3E01FB02F2AEF1080E1A
:1033F0004FEA22324FEA2E11CEF3420EA2F108021A
:10340000CEF108054FEA221CC2F3420200FB0C1C5D
:10341000C2F10807029902FB05F50EFB07F701EB65
:103420004C0631F81CC0C7F1400102FB0EF2748853
:103430002CF4FC6EA1EB050136F80B0024F4FC68BB
:1034400004F4FC64A1EB02010CF4FC6C07FB08F82B
:103450005E4407FB04F401FB0E8E36F8026C20F488
:10346000FC6801FB0C4400F4FC6026F4FC6702FBE2
:1034700008E806F4FC6602FB00444FF61F0205FB59
:10348000078805FB064502EA9818019A4FEA552578
:103490004FEAC80105F0FC0EC5F3811501F0F801F3
:1034A0004FEA583745EA0E0547EA182841EA05254C
:1034B00045EA511141EA084141F07F4142F8041BBD
:1034C00001927FF47EAF05B0BDE8F08F2DE9F04F9B
:1034D00083B08F68D1F800A0119C4FEA670BD0F839
:1034E0000080256B266D2D15DDF830E0691C002E5F
:1034F00074D1606DB0FA80F040090090002A02F1AA
:10350000FF3053DD109D4FEA2E391A1305FB09F9E0
:103510000F9D4FEA294605FB02F206FB0BF5171437
:1035200005EB2242009D3AF81220E5B9256D216B8A
:10353000D4F838C0002D3CD1656DB5F1000918BF35
:103540004FF0010967B1B9F1000F09D00E15A56C54
:1035500001F07F61C6EB2C5C05FB0CFC07FB0C113A
:10356000C1F307510131B2B1150AD60005F0F807D1
:10357000D208C6F3421CC5F34215F6B202F0FC09AC
:103580003D43C2F381124CEA060642EA090246EACA
:10359000054646EA022242EA01620D9D01382B44AB
:1035A00048F8042B0E9D421CAE44ABD103B0BDE8DD
:1035B000F08F656D2EB9B5F1000918BF4FF0010904
:1035C000C0E70195656B05FB0611019D002DC7D075
:1035D000E56B4FF0010905FB06CCB3E70020009036
:1035E0008CE700BF2DE9F04F89B08F680068179D08
:1035F00009682E6B01907810361506912C6D711CA0
:10360000DDF8488004900391002C40F0C080696D83
:10361000B1FA81F149090591002A02F1FF3E40F318
:10362000AE80049A013252000792159A18134FEA9D
:103630002839059C02FB00F0169A02FB09F90113D8
:103640004FEA293224BB2E6D00142C6BD5F838C0FC
:10365000002E00F097805FEA294900F093806F6B9D
:103660006E6D07FB09447EB1EF6B012607FB09CCA9
:1036700050B14EB12715AE6C04F07F64C7EB2C5CE3
:1036800006FB0CFC00FB0C44C4F30754601C0390C5
:103690000839083A049EC2F3420408111211C1F31A
:1036A0004201C4F1080906FB0202069801FB09F970
:1036B000C1F1080700EB420C30F812A004FB07F739
:1036C000C9F14006BCF8020004FB01F1F61B0AF444
:1036D000FC6B00F4FC6420F4FC60761A2AF4FC6AAB
:1036E0000290079809FB04F43CF8002084440298F7
:1036F00006FB0B443CF802CC02F4FC6B09FB00F027
:1037000022F4FC6201FB0B440CF4FC6B06FB0A0088
:103710002CF4FC6C07FB0B4401FB02004FF61F026C
:10372000A40907FB0C0004F4FC6402EA9010204397
:1037300014D0060AC10006F0F804C008CAB2C1F3EA
:10374000421144EA5614C0F3811900F0FC060A4302
:1037500049EA060042EA044242EA0020039A0EF1D6
:10376000FF3E40EA0260139ABEF1FF3F1344149AF1
:103770009044019A42F8040B01927FF456AF09B0CD
:10378000BDE8F08F6E6D003E18BF012670E7002186
:10379000059141E72DE9F04F83B08F68D1F800A083
:1037A000119C4FEA670B0068256B266D2D15DDF81F
:1037B0003080691C002E40F0A580656DB5FA85F556
:1037C0006D090195002A02F1FF3E40F382809C467C
:1037D000109A4FEA28394FEA2C3302FB09F90F9A65
:1037E0004FEA294602FB03F306FB0BF21D1402EB22
:1037F0002343019A3AF81330FAB9216D226BD4F8B9
:10380000389000296AD0002E68D0616B676D01FB8B
:1038100006227FB1E76B012107FB069955B149B13B
:103820001615A16C02F07F62C6EB295701FB07F762
:1038300005FB0722C2F3075101311F0A0568DA00B0
:1038400007F0F806DB085FFA82F9C2F3421246EA93
:10385000571603F0FC0742EA0902C3F3811342EA58
:1038600006423B432F0E42EA032302F0FF164FEAC3
:10387000132306FB01F603F0FF1303FB01F32BD028
:10388000C1F5807205F0FF19C5F3072507FB022279
:10389000120A02FB09668F1802FB0533360A1B0A5F
:1038A0001FB1013FFE2F1ED93F061B0206F0FF1677
:1038B0000D9A0EF1FF3E03F0FF233E439444BEF108
:1038C000FF3F0E9A43EA0603904440F8043B7FF41E
:1038D0007FAF03B0BDE8F08F0F46DFE7616D0039C1
:1038E00018BF01219AE7094A06F0FF1603F0FF13FB
:1038F00032F817203F0602FB06F602FB03F3360AF6
:103900001B0AD2E7002501955CE700BF58C10308F8
:103910002DE9F04F87B09E468B68159D5B100468BB
:103920002E6B029336150B682F6D01360493002F12
:1039300040F0F5806B6DB3FA83F35B090393531E7C
:10394000002A009340F3D280029B01335B00059371
:10395000109B4FEA2E3003994FEA2338139B03FB49
:1039600000F0149B03FB08F802134FEA283319BB3D
:103970002E6D0014296BD5F838C0002E00F0BB80E6
:103980005FEA284800F0B7806F6B6E6D07FB081187
:103990007EB1EF6B012607FB08CC50B14EB10F157D
:1039A000AE6C01F07F61C7EB2C5C06FB0CFC00FBEE
:1039B0000C11C1F307560136083A083BD4F80090C1
:1039C000C3F3420B11111811029BC2F3420ACBF14F
:1039D000080203FB0010049B0AFB02F1CAF108086D
:1039E00003EB400733F810000BFB0AF3C1F1400C66
:1039F0007A880BFB08F820F4FC6B00F4FC6022F4DE
:103A0000FC6A02F4FC62ACEB080C01FB02F201FB65
:103A10000AFAACEB030C0192059A0CFB0BABB95AFA
:103A20001744019A21F4FC6A37F8027C0CFB00224F
:103A300001F4FC6103FB0ABA27F4FC6B03FB0121D0
:103A40004FF61F0308FB0BAB07F4FC6703EA9B1B55
:103A500008FB07174FEACB037F0A03F0F8024FEA8F
:103A60005B3AC3F3421307F0FC004AEA1B2BC7F38F
:103A70008117134307435FEA196043EA0B4343EAA4
:103A8000072103F0FF134FEA112103FB06F301F0B6
:103A9000FF1101FB06F12CD0C6F5807209F0FF176B
:103AA000C9F3072900FB0222120A02FB0733B018F0
:103AB00002FB09111B0A090A18B10138FE281FD997
:103AC0000006009A0902119F03F0FF13013A01F06A
:103AD000FF210343BE441098129F19430092013204
:103AE000384444F8041B10907FF432AF07B0BDE8AF
:103AF000F08F3046DEE76E6D003E18BF01264CE7C2
:103B0000084A03F0FF1301F0FF1132F810200006FD
:103B100002FB03F302FB01F11B0A090AD1E70023B0
:103B200003930CE758C10308F0B41D6949001C68F1
:103B300087682E0B2409056807FB0212186B04F432
:103B40007F04196A06F47F46000144EA0603C1F3C4
:103B5000075400F07F4023430343800E14D0190A1A
:103B6000C3F3C4045B0901F4784103F4FC6321430B
:103B700000FB033300FB01109B09800903F4FC6385
:103B800020F4FC60184380B2A852F0BC704700BF1C
:103B9000F0B41D691C682E0B1F6A24091D6B06F406
:103BA0007F46C7F3075704F47F032C01334304F027
:103BB0007F443B432343A40E29D01D0A8768490054
:103BC00006683F2C05F47840C3F3C4054FEA53134D
:103BD00007FB021140EA050003F4FC6315D0725A9A
:103BE000C4F13F0704FB033302F4FC6504FB00044B
:103BF00022F4FC624FF61F0007FB053307FB02446B
:103C00009B0900EA941003F4FC6303437352F0BC75
:103C1000704700BF70B4036814691068250B146BFB
:103C20000009166A05F47F4500F47F022001C6F3FF
:103C3000075600F07F402A43840E42EA060242EA19
:103C400000022CD0100AC2F3C405520900F47840D7
:103C500002F4FC62284304FB022204FB00009209E8
:103C6000800902F4FC6220F4FC60024394B244EA4E
:103C700002429D0704D0002906DD013923F8024BDA
:103C8000002901DDC8070CD44910002905DD03EB2C
:103C9000810143F8042B9942FBD170BC7047224646
:103CA000E7E7013923F81140EEE700BF2DE9F041C5
:103CB0001368002914694FEA1313166A4FEA143582
:103CC000146B03F47F03C6F3075605F47F424FEAF3
:103CD0000414006842EA030204F07F4342EA060249
:103CE00042EA03022BDD140AC2F3C40356094FF65D
:103CF0001F0E04F47844920E06F4FC6600EB4101BA
:103D00001C43C2F13F0502FB066C02FB04479AB15B
:103D10003F2A16D0038803F4FC6823F4FC6305FBF8
:103D200008C805FB03734FEA98180EEA931308F4CA
:103D3000FC6843EA0803038002308142E7D1BDE812
:103D4000F081B0462346F4E72DE9F04F536883B085
:103D500000290468019315681669176A106BD2F878
:103D600014A0D2F824B0536B3ADD4FEA03180001D7
:103D700004EB41094FEA151C00F07F43310BC7F3F8
:103D800007520CF47F0C01F47F414CEA01010B4314
:103D90001A439B0E4FEA1221C2F3C40E9C464FEA0F
:103DA000521201F4784112D002F4FC6241EA0E0191
:103DB00003FB022203FB011192094FEA911C02F45A
:103DC000FC622CF4FC6C4CEA020C1FFA8CFC019B8C
:103DD000564424F802CB4C451D445F444044C9D1AD
:103DE00003B0BDE8F08F00BF2DE9F04F536883B0FA
:103DF00000290068019316681769D2F820C0156B76
:103E0000D2F814A0D2F824B0536B40DD4FEA031E61
:103E10002D0100EB4109019A330905F07F417544FA
:103E200016443A0B03F47F03574402F47F421343D2
:103E3000CCF30752DC440B431A439B0E4FEA122487
:103E4000C2F3C4014FEA521204F478441CD0214357
:103E500002F4FC623F2BC3F13F0803FB022403FB87
:103E600001130FD0018801F4FC6221F4FC6108FB0E
:103E7000024208FB01314FF61F03920903EA911138
:103E800002F4FC621143018002304845C3D103B003
:103E9000BDE8F08F002A006870B40C6820DD00EBEC
:103EA000420554F8042B130AC2F3C406510903F463
:103EB0007843920E01F4FC6143EA0603164602FBC6
:103EC000011109D002FB033389099B0901F4FC614C
:103ED00023F4FC630B439EB220F8026B8542E0D1D1
:103EE00070BC7047002A00682DE9F0410C682CDD99
:103EF00000EB4205164E4FF61F0754F8042B130A29
:103F0000C2F3C40C510903F47843920E01F4FC612E
:103F100043EA0C0316D03F2AC2F13F0C02FB011EFC
:103F200002FB03380CD0028822F4FC6302EA06018B
:103F30000CFB03830CFB01E107EA931306EA9111E2
:103F40000B4303800230A842D7D1BDE8F08100BF07
:103F5000E007FC00002A1B6B0068F0B40C6824DD4D
:103F60009B1500EB4205591C54F8043BC3F3C407EE
:103F70001A0A5E091B0E02F4784206F4FC6603FB83
:103F800001133A431B0A02FB03F21F4606FB03F32D
:103F900007D092099B0922F4FC6203F4FC631A43E4
:103FA00097B220F8027BA842DED1F0BC704700BF78
:103FB000002A1B6B00682DE9F0430C6832DD9B156D
:103FC000194E00EB42054FF61F07591C54F8043BED
:103FD0001A0AC3F3C40E4FEA531C02F478429B0E34
:103FE0000CF4FC6C03FB011342EA0E0217D09B0990
:103FF000B0F80080C3F1400E28F4FC6908EA060816
:104000000EFB09F90EFB08FE03FB029203FB0CEC0E
:1040100007EA921306EA9C1C43EA0C030380023071
:104020008542D3D1BDE8F083E007FC00002A006898
:104030002DE9F0410C68D3E90C1629DD00EB4205AF
:1040400054F8047B8B154FEA176C01333A0AC7F317
:10405000C40E0CFB03334FEA571802F478421B0AD4
:1040600008F4FC6742EA0E029C4602FB03F207FBDF
:1040700003F308D092099B0922F4FC6203F4FC6369
:104080001A431FFA82FC20F802CBA8423144D7D150
:10409000BDE8F081002A00682DE9F0470C68D3E9FB
:1040A0000C1536DD00EB42021B4E4FF61F0754F88D
:1040B000043B4FEAA15829444FEA132CC3F3C40927
:1040C0004FEA531E0CF4784C9B0E0EF4FC6E03F179
:1040D00001034CEA090C19D008FB0333B0F8008047
:1040E0009B0928F4FC6A08EA0609C3F1400808FBAA
:1040F0000AFA08FB09F803FB0CAC03FB0E8E07EA77
:104100009C1306EA9E1E43EA0E030380023082429D
:10411000CDD1BDE8F08700BFE007FC00002A0068B1
:10412000F0B40C688E6922DD00EB420514F8013B07
:1041300056F82320130AC2F3C407510903F4784345
:10414000920E01F4FC6143EA0703174602FB0111DA
:1041500009D002FB033389099B0901F4FC6123F4B4
:10416000FC630B439FB220F8027BA842DED1F0BC77
:10417000704700BF002A2DE9F04104688D69086886
:104180002EDD81184FF61F0610F8013B55F823204D
:10419000130AC2F3C40C570903F47843920E07F4D0
:1041A000FC6743EA0C0317D03F2AC2F13F0C02FB25
:1041B000077802FB033E0DD0228802F4FC6722F44C
:1041C000FC620CFB07870CFB02E3BF0906EA9313B2
:1041D00007F4FC673B432380884204F10204D3D1F7
:1041E000BDE8F081002A1B6B0068F0B40C688E6992
:1041F00028DD9B1500EB4205591C14F8013B56F8CD
:104200002330C3F3C40C1A0A5F091B0E02F4784270
:1042100007F4FC6703FB011342EA0C021B0A02FBD2
:1042200003F29C4607FB03F308D092099B0922F492
:10423000FC6203F4FC631A431FFA82FC20F802CBF1
:10424000A842DAD1F0BC7047002A1B6B2DE9F04779
:1042500004688E69086834DD9B1585181A4F4FF67F
:104260001F0C591C10F8013B56F823301A0AC3F3EF
:10427000C4084FEA531E02F478429B0E0EF4FC6E03
:1042800003FB011342EA080217D09B09B4F800901F
:10429000C3F1400829F4FC6A09EA070908FB0AFA95
:1042A00008FB09F803FB02A203FB0E8E0CEA921333
:1042B00007EA9E1E43EA0E032380A84204F102048B
:1042C000D0D1BDE8F08700BFE007FC00002A0068FD
:1042D0002DE9F0410C688E69D3E90C172CDD00EB59
:1042E000420514F8013B8A1556F823C001324FEA03
:1042F0001C23CCF3C4084FEA5C1E4FEA1C6C03F489
:1043000078430EF4FC6E0CFB022243EA0803120A07
:1043100003FB02F394460EFB02F208D09B099209BC
:1043200023F4FC6302F4FC6213431FFA83FC20F8BD
:1043300002CBA8423944D4D1BDE8F081002AD1F89B
:1043400018C02DE9F04F05680868D3E90C4E36DD3A
:104350008718DFF870804FF61F0910F8013B4FEA0D
:10436000A45A74445CF823301A0AC3F3C4065909EA
:1043700002F478429B0E01F4FC6103F1010342EA6E
:10438000060218D00AFB0333B5F800A09B092AF4F3
:10439000FC660AEA080BC3F1400A0AFB06F60AFBB0
:1043A0000BFA03FB026203FB01A309EA921208EA7B
:1043B000931313432B80B84205F10205CDD1BDE81C
:1043C000F08F00BFE007FC002DE9F0471C68002AD1
:1043D0001D694FEA14141E6A4FEA15351B6B04F46D
:1043E0007F04C6F3075605F47F454FEA03130068C0
:1043F00045EA040503F07F43096845EA060545EAF6
:1044000003052DDD2F0AC5F3C4034FEA55188E1896
:1044100007F47847AD0E08F4FC684FF61F0A1F43F7
:1044200005F1010EDFF8509004E0B142038000F185
:10443000020015D011F8013B9B08F6D003FB0EE2F9
:104440003E2BC4463C464FEA92120BD9AB4209D1EF
:1044500044EA0C04B14200F1020020F8024CE9D118
:10446000BDE8F08702FB07F402FB08F20AEA9414A5
:1044700009EA921CECE700BFE007FC002DE9F04FD1
:104480001E69002A056808684FEA1636196806F49E
:104490007F464FEA1114196A1B6B04F47F04C1F3C1
:1044A00007514FEA031344EA060403F07F4344EA4A
:1044B000010444EA030445DD270AC4F3C4035FEAA8
:1044C000946900EB020607F478474FEA541414BFCE
:1044D0004FF0010E4FF0000E09F1010C1F4304F4E0
:1044E000FC644FF61F0ADFF8608006E041EA0B012A
:1044F0002980B04205F1020524D010F8013B9A084A
:10450000F7D0BEF1000FF4D002FB0CC33E2AA34645
:1045100039464FEA931301D94A45E7D02A88C3F1B7
:10452000400B22F4FC6102EA08020BFB01F10BFBD9
:1045300002FB03FB071103FB04B30AEA911108EA2B
:10454000931BD3E7BDE8F08FE007FC002DE9F04FA7
:104550000D6885B05968002A1E68019159691F6964
:104560000291596AD3F820C01C6BD0F800E05B6B55
:10457000039152DD4FEA031A05EB020924012DE0F5
:104580001043890840EA0B0040EA080301F10100EA
:104590004FEA1322C3F3C40B4FEA531802F47842D4
:1045A0004FEA936308F4FC6826D003FB00003E2921
:1045B00042EA0B024FEA901023D9994221D142EAF4
:1045C0000808AEF80080019BA9450EF1020E544484
:1045D0001E44029B1F44039B9C441ED0320915F8C5
:1045E000011B380B04F07F4BCCF3075802F47F0219
:1045F00000F47F400029C3D14FF00003AEF8003033
:10460000E1E74FF61F0300FB02F200FB08F803EAA4
:104610009212034B03EA9818D1E705B0BDE8F08F7A
:10462000E007FC002DE9F04F0E6885B05968002ABC
:104630001F6801915969D3F810C00291596AD3F8E3
:1046400020E01D6BD0F800805B6B03915DDD4FEACD
:10465000031A06EB02092D0106E00243A8F8002028
:10466000B14508F1020850D0019A3B094FEA1C30CD
:1046700016F8011B1744029A03F47F0300F47F40ED
:104680009444039A05F07F44CEF3075B03439644BA
:1046900055440029E4D0234389084BEA030201F181
:1046A00001044FEA93634FEA1220C2F3C40B4FEAAE
:1046B000521200F47840D3D003FB044402F4FC62AD
:1046C00040EA0B00002BCBD0A4093E29C4F1400BDB
:1046D00001D99942C1D0B8F8001021F4FC6321F04F
:1046E0007F4121F47E310BFB03F321F01F0104FB1A
:1046F00000304FF61F030BFB01F103EA9010044B4F
:1047000004FB021203EA9212A7E705B0BDE8F08F9E
:10471000E007FC00002A00680B6808DD811E03EB3F
:10472000420033F8022B834221F8022FF9D170475F
:10473000002A0068F0B41E6B0C681ADDB6154FF63F
:104740001F0700EB4205013634F8023B03F4FC621C
:1047500023F4FC614BB102FB06F301FB06F19B095C
:1047600007EA911103F4FC630B4320F8023BA842D3
:10477000EAD1F0BC704700BF002A1B6B0068F0B59F
:104780000C6825DD9B154FF61F0700EB4206591CF0
:10479000C1F14005B0F800C034F8023B0CF4FC6EE7
:1047A0002CF4FC6C03F4FC6223F4FC6305FB0EFEAA
:1047B00005FB0CFC01FB02E201FB03C3920907EAC3
:1047C000931302F4FC62134320F8023BB042E1D1A0
:1047D000F0BD00BF002A0068F0B50D68D3E90C47B2
:1047E0001BDD00EB42064FF61F0C35F8023B4FEA8B
:1047F000A45E3C4403F4FC6223F4FC614BB10EFB69
:1048000002220EFB011193090CEA911103F4FC63DF
:104810000B4320F8023BB042E7D1F0BD002A00680C
:104820002DE9F0430C68D3E90C1625DD00EB4205B9
:104830004FF61F0734F802CB4FEAA15903883144E1
:104840000CF4FC6EC9F13F0803F4FC622CF4FC6C20
:1048500009FB0EEE23F4FC6309FB0CCC08FB02E21F
:1048600008FB03C3920907EA931302F4FC621343A3
:1048700020F8023BA842DDD1BDE8F083002A0068A1
:104880002DE9F04F099C8D680E68DDE90A7CDDE9B1
:104890000CE835DDAD1000EB420122134FEA23395D
:1048A00008FB02F20EFB09F912144FEA294905FB35
:1048B000029256F822904FEA192BC9F3C4024FEA2C
:1048C000591A0BF4784B5FEA99690AF4FC6A4BEACF
:1048D0000202CB4609FB0AAA0CD009FB02224FEACE
:1048E0009A1A92090AF4FC6A22F4FC6242EA0A0269
:1048F0001FFA82FB20F802BB88423B446444CCD1BF
:10490000BDE8F08F2DE9F04FD0F8009085B08868B1
:10491000002A0968DDF838A001914FEAA001029150
:1049200040F38580013109EB42024FEA810B03928B
:10493000119819134FEA2A32029D00FB01F11298D7
:1049400000FB02F2091312130839083A081101F0AA
:104950000F01141102F00F02C1F1100605FB04044F
:10496000C2F1100C019802FB06F601FB0CFC00EBF7
:10497000840702FB01F2CCF5807550F82440796879
:10498000AD1B04F0FF1E080A01F0FF11AD1A4FEA3B
:1049900014280CFB01F157F80B4000F0FF105F44A6
:1049A00005FB0E1108F0FF180CFB00F04FEA142E67
:1049B00057F8047C04F0FF1405FB08000EF0FF1EFE
:1049C00002FB04114FEA172C07F0FF1702FB0E0041
:1049D0000CF0FF1C06FB071106FB0C06090A06F08B
:1049E000FF2601F0FF113143B60E4FEA1122C1F349
:1049F000C40530464FEA511102F478420ED001F45A
:104A0000FC612A4306FB011106FB02228909900979
:104A100001F4FC6120F4FC60084380B20F9A29F88D
:104A2000020B1344109A9244039A914580D105B029
:104A3000BDE8F08F2DE9F04F002A85B004680E9D87
:104A40008F68D1F800E0DDE90FABDDE9118941DDC8
:104A5000BF10F44604EB4206BE4601962A135D449D
:104A60001913534409FB02F208FB01F11214091453
:104A70000EFB02125CF822100A0AC1F3C4074809AF
:104A800002F47842890E00F4FC6042EA07021DD06D
:104A900001FB00063F29C1F13F07039601FB0226F7
:104AA000029611D022884FF61F01039E02F4FC608B
:104AB00022F4FC6207FB0060029E800907FB026291
:104AC00000F4FC6001EA9212024322800234019A4F
:104AD0009442C3D105B0BDE8F08F00BF2DE9F04F7F
:104AE000D0F8008085B08868002A0968DDF838A011
:104AF00001914FEAA001029140F39580013108EB4A
:104B000042024FEA810B03920F9A19131098134433
:104B10004FEA2A3282441198029D00FB01F112985B
:104B200000FB02F2091312130839083A081101F0C8
:104B30000F01141102F00F02C1F1100605FB04046D
:104B4000C2F1100C019802FB06F601FB0CFC00EB15
:104B5000840702FB01F2CCF5807550F82440796897
:104B6000AD1B04F0FF1E080A01F0FF11AD1A4FEA59
:104B700014290CFB01F157F80B4000F0FF105F44C3
:104B800005FB0E1109F0FF190CFB00F04FEA142E83
:104B900057F8047C04F0FF1405FB09000EF0FF1E1B
:104BA00002FB04114FEA172C07F0FF1702FB0E005F
:104BB0000CF0FF1C06FB071106FB0C06090A06F0A9
:104BC000FF2601F0FF113143B60E4FEA1120C1F369
:104BD000C4024FEA511100F478401ED001F4FC6188
:104BE00002433F2EC6F13F0406FB011506FB0226D9
:104BF00010D0B8F8002002F4FC6122F4FC6204FB3F
:104C000001554FF61F0104FB0262AD0901EA921241
:104C100005F4FC610A43A8F8002008F10208039A91
:104C200090457FF471AF05B0BDE8F08F2DE9F04FEE
:104C300085B08C68D1F800B0139D4FEAA40A0068D3
:104C40002E6B2F6D0396B6150E9C711C0297002FCC
:104C500073D16E6DB6FA86FC4FEA5C1C002A62DDE9
:104C600000EB4208E146129E4FEA243E1A1306FB6F
:104C70000EFE119E4FEA2E4E06FB02F20EFB0AF7C5
:104C8000161407EB22425BF82220B9F1000F25D160
:104C90000299D5F838C0002948D0BEF1000F45D0A0
:104CA000696D6F6B0191039907FB0E11019F97B11D
:104CB00001270197EF6B07FB0ECC66B1019F57B13F
:104CC0004FEA215EAF6C01F07F61CEEB2C5C07FBFD
:104CD0000CFC06FB0C11C1F3855101314FEA126C3B
:104CE0000CFB011C5FEA1C2C15D0160AC2F3C4078A
:104CF000520906F4784602F4FC623E4302FB0CF2D1
:104D000006FB0CF69209B60902F4FC6226F4FC6676
:104D100032431FFA82FC0F9A20F802CB404513441D
:104D2000109A14449FD105B0BDE8F08F6F6D0399C0
:104D3000003F18BF01270197BFE74FF0000C8DE738
:104D40002DE9F04F89B0D0F80090179CDDF848A00D
:104D5000256B266D8C68AF150968A0100137079583
:104D6000069601900391002E40F0D3801799496D6B
:104D7000B1FA81F149090291002A40F3AE8001990C
:104D800009EB42020097013105928A000492159ABC
:104D90001D134FEA2A3C029902FB05F5169A02FB05
:104DA0000CFC28134FEA2C32E9B917992D148F6B9C
:104DB0000699002940F0948017994C6D0799003CA2
:104DC00018BF01245DB154B10E15179C01F07F612D
:104DD000A46CC6EB275704FB07F705FB0711C1F3CB
:104DE0008557791C0091A2F108050838019A05F051
:104DF0000F0406112D1100F00F00C4F11001049FE3
:104E000002FB0565039E00FB01F1C0F1100C06EBEF
:104E1000850204FB00F056F825E004FB0CFCD2F8F8
:104E200004B0C1F58076D5594FEA1E284FEA1B24FD
:104E3000A6EB0C060BF0FF1B3A4404F0FF14361AE5
:104E400052F8042C0EF0FF1E01FB04F408F0FF18CA
:104E500001FB0BF14FEA152B06FB084405F0FF158B
:104E600006FB0E110BF0FF1B4FEA122E02F0FF1291
:104E700000FB0B440EF0FF1E00FB05110CFB0E4463
:104E80000CFB0212009904F0FF24120A200E02F01B
:104E9000FF1200FB01101443000A14D0250AC4F3CA
:104EA000C406640905F4784504F4FC64354304FB46
:104EB00000F405FB00F5A409AD0904F4FC6425F435
:104EC000FC652C43A0B2139A29F8020B1344149AE0
:104ED0009244059A91457FF45AAF09B0BDE8F08F2E
:104EE0005FEA2C4C179905D14C6D0799003C18BF0F
:104EF000012467E7179C496B079E646D01FB0C61F9
:104F0000002C3FF46CAF179CE66B012406FB0C777A
:104F100058E7002102912FE72DE9F04F87B0006894
:104F2000159D2C6D2E6B0394B7158C6804960E6836
:104F30004FEAA40C03990137109C0296002940F017
:104F40008480696DB1FA81F149090191002A71DD0E
:104F500000EB4208E64614994FEA24391A1301FB84
:104F600009F913994FEA294901FB02F209FB0EF1F5
:104F7000161401EB2242029951F82220019931BB0B
:104F80000399D5F838C0002957D0B9F1000F54D093
:104F9000696D6F6B0591049907FB0911059F9FB11E
:104FA000EF6B4FF0010A07FB09CC6EB1BAF1000FAD
:104FB0000AD04FEA2159AF6C01F07F61C9EB2C5C3C
:104FC00007FB0CFC06FB0C11C1F385570137960E4D
:104FD00029D006FB0776B0F800A05109B6090AF4FB
:104FE000FC6B4FEA122C01F4FC61C6F140092AF473
:104FF000FC6AC2F3C4020CF4784C09FB0BFB4CEACC
:10500000020209FB0AF906FB01BB4FF61F0106FB72
:1050100002924FEA9B1B01EA92120BF4FC6B42EAEC
:105020000B0BA0F800B0119A023013444045129ABD
:10503000144490D107B0BDE8F08F6F6D0499B7F1BB
:10504000000A18BF4FF0010AAFE7002101917DE788
:105050002DE9F04F89B00668179FDDF848C03D6B19
:105060003C6D0795AD1506948C680968A010069CE8
:105070000391691C00900191002C40F0E580796D4E
:10508000B1FA81F149090291002A40F3C1800099E7
:1050900006EB42021797013105928A000492159A95
:1050A0001D134FEA2C38029802FB05F5169A02FBF5
:1050B00008F829134FEA2832F8B917982D14D0F8B8
:1050C00038E00698002840F0A6801798446D0798AD
:1050D000003C18BF012465B15CB14FEA2058179C11
:1050E00000F07F60A46CC8EB2E5E04FB0EFE05FB97
:1050F0000E00C0F38550013001900839083A009C39
:1051000002F00F0B0811121101F00F01CBF1100A80
:10511000049F04FB0202039801FB0AFAC1F1100587
:1051200000EB820950F822000BFB05F5CAF58074EC
:10513000D9F804200BFB01F1641B4FEA102E4FEA53
:10514000122802F0FF12641A00F0FF1B0AFB02F2A1
:1051500059F8070008F0FF18B94404FB0B2B0EF0B8
:10516000FF1E59F8042C0AFB08F84FEA102900F03A
:10517000FF104FEA122A04FB0E8809F0FF1901FB09
:1051800000BB02F0FF120AF0FF1A01FB098805FBC1
:1051900002BB05FB0A8A4FEA1B2B0AF0FF2A0BF021
:1051A000FF1B5FEA9A624AEA0B0028D00199440982
:1051B000B6F800E002FB0112010A0EF4FC6804F4E8
:1051C000FC6492092EF4FC6EC0F3C40001F4784133
:1051D000C2F14005084305FB08F805FB0EF502FB8C
:1051E000048802FB00504FF61F024FEA981802EAAB
:1051F000901008F4FC6840EA0808A6F80080139AAA
:1052000002361344149A9444059A96427FF447AFA9
:1052100009B0BDE8F08F5FEA2848179805D1446DC2
:105220000798003C18BF012455E7179C406B079F67
:10523000646D00FB0870002C3FF45BAF179F0124E6
:10524000FF6B07FB08EE46E7002102911CE700BF59
:10525000002AD1F800C02DE9F04F099D0468D1F86B
:1052600018E0D1F80880DDF834B0DDE90B9A2EDDC6
:1052700004EB42072A1319130BFB02F20AFB01F19C
:105280001214091408FB02C2525C5EF822100A0ACA
:10529000C1F3C406480902F47842890E00F4FC60A8
:1052A00042EA06020E4601FB000009D001FB02267D
:1052B0008009B60900F4FC6026F4FC660643B6B229
:1052C0000A9A4D4424F8026BBC421344D2D1BDE883
:1052D000F08F00BF2DE9F04F002A85B0D0F8009084
:1052E000D1F8188008688968DDF838A0009001912D
:1052F00040F38E8009EB420202924A1C03921199FC
:105300001D134FEA2A32019C01FB05F51299039FF8
:1053100001FB02F22D131213083D083A291105F082
:105320000F05101102F00F02C5F1100604FB00106A
:10533000009CC2F1100E02FB06F6211802FB05F2DA
:1053400005FB0EFE205C4D7801EB070BCEF5807C53
:1053500058F8200058F82550ACEB0604C95D4FEA18
:10536000152C05F0FF15A41A58F821100EFB05F5B1
:10537000070A0CF0FF1C1BF801BC00F0FF1007F03F
:10538000FF170EFB0CFC58F82BB004FB00504FEA43
:10539000112E01F0FF1104FB07CC4FEA1B250EF084
:1053A000FF1E02FB01000BF0FF1B02FB0ECC05F001
:1053B000FF1506FB0B0006FB05C6000A06F0FF26DC
:1053C00000F0FF113143B60E4FEA1122C1F3C404BD
:1053D00030464FEA511102F478420FD001F4FC61DB
:1053E000224306FB011106FB02228909920901F4FE
:1053F000FC6122F4FC6242EA010080B20F9A29F8B3
:10540000020B1344109A9244029A91457FF477AFAD
:1054100005B0BDE8F08F00BF2DE9F04F002A85B040
:1054200004680E9DD1F800C0D1F818E0D1F80880CA
:10543000DDF84890DDE90FAB40DD04EB4206019654
:105440002A13119819135D4409FB02F2534400FB1F
:1054500001F11214091408FB02C2525C5EF822101A
:105460000A0AC1F3C407480902F47842890E00F41D
:10547000FC6042EA07021DD001FB00063F29C1F192
:105480003F07039601FB0226029611D022884FF6B1
:105490001F01039E02F4FC6022F4FC6207FB006023
:1054A000029E800907FB026200F4FC6001EA92128E
:1054B000024322800234019A9442C1D105B0BDE872
:1054C000F08F00BF2DE9F04F002A85B0D0F8009092
:1054D000D1F8188008688968DDF838A0009001913B
:1054E00040F39C8009EB420202924A1C03920F9AFD
:1054F0001D13109913444FEA2A328A441199019CD2
:1055000001FB05F51299039F01FB02F22D13121303
:10551000083D083A291105F00F05101102F00F029D
:10552000C5F1100604FB0010009CC2F1100E02FB36
:1055300006F6211802FB05F205FB0EFE205C4D78F5
:1055400001EB070BCEF5807C58F8200058F8255069
:10555000ACEB0604C95D4FEA152C05F0FF15A41A43
:1055600058F821100EFB05F5070A0CF0FF1C1BF87C
:1055700001BC00F0FF1007F0FF170EFB0CFC58F801
:105580002BB004FB00504FEA112E01F0FF114FEA3F
:105590001B2504FB07CC0EF0FF1E02FB01000BF0E5
:1055A000FF1B02FB0ECC05F0FF1506FB0B0006FBF4
:1055B00005C6000A06F0FF2600F0FF113143B60EC3
:1055C0004FEA1120C1F3C4024FEA511100F47840B0
:1055D0001ED001F4FC6102433F2EC6F13F0406FBDE
:1055E000011706FB022610D0B9F8002002F4FC6176
:1055F00022F4FC6204FB01774FF61F0104FB0262F8
:10560000BF0901EA921207F4FC610A43A9F80020DD
:1056100009F10209029A91457FF469AF05B0BDE82E
:10562000F08F00BF2DE9F04F85B0D1F800C0D1F860
:1056300018B0139ED1F808A0346B376DA5150394EC
:1056400002970468681C0E9D002F73D1716DB1FA2A
:1056500081F149090091002A62DD04EB4208E1462C
:1056600012994FEA253E1A1301FB0EFE11994FEADB
:105670002E4E01FB02F20EFB0AF109EB2247121437
:10568000795C009F5BF821102FBB0298D6F838C0D8
:10569000002848D0BEF1000F45D0706D776B0190A7
:1056A000039807FB0E00019F97B101270197F76B45
:1056B00007FB0ECC62B1019F57B14FEA205EB76C79
:1056C00000F07F60CEEB2C5C07FB0CFC02FB0C00B7
:1056D000C0F3855001304FEA116C0CFB000C5FEAFF
:1056E0001C2C15D00A0AC1F3C407490902F47842F8
:1056F00001F4FC613A4301FB0CF102FB0CF2890955
:10570000920901F4FC6122F4FC6211431FFA81FC4E
:105710000F9A24F802CB44451344109A15449FD1A4
:1057200005B0BDE8F08F776D0398003F18BF0127E3
:105730000197BFE7002100918DE700BF2DE9F04FF1
:1057400089B0D0F800B0D1F818A0179C179D246B31
:1057500008682D6D4FEAA45C89680CF1010C079470
:10576000069503900191002D40F0D9801799496D5D
:10577000B1FA81F149090291002A40F3B4800BEBA0
:1057800042020492019A01320592129A1D13029864
:105790001413159A02FB05F5169A02FB04F429135B
:1057A0002213E8B917982D14876B0698002840F04B
:1057B0009D801798446D0798003C18BF01245DB187
:1057C00054B10615179C00F07F60A46CC6EB2757F8
:1057D00004FB07F705FB0700C0F3855C0CF1010C27
:1057E0000839083A019D02F00F090C11121101F05D
:1057F0000F01C9F1100005FB0242039C01FB00F000
:10580000C1F1100E04EB0208A55C09FB01F1C0F523
:10581000807798F8014009FB0EFE5AF825505AF897
:105820002460A7EB0E07059C7F1A08EB040218F80A
:1058300004904FEA162806F0FF165AF829404FEA5E
:10584000152908F0FF1812F8012C00FB06F609F0E4
:10585000FF195AF8222000FB08F04FEA142805F03F
:10586000FF1507FB09004FEA122908F0FF1804F0A2
:10587000FF1409F0FF1907FB056501FB080002F0A2
:10588000FF1201FB04550EFB09000EFB025200F053
:10589000FF20120A010E02F0FF1201FB0CC110439F
:1058A000090A14D0040AC0F3C406400904F4784479
:1058B00000F4FC60344300FB01F004FB01F48009B8
:1058C000A40900F4FC6024F4FC64204381B2139A20
:1058D0002BF8021B13441499129A0A441292049A48
:1058E00093457FF452AF09B0BDE8F08F5FEA244CD6
:1058F000179805D1446D0798003C18BF01245EE756
:10590000179C406B079E646D00FB0C60002C3FF4FD
:1059100063AF179CE66B012406FB0C774FE7002171
:10592000029129E72DE9F04F87B0D1F800C0159E0C
:10593000346B356DA71504940468886901370395A5
:10594000019088680399109D0290002940F086809C
:10595000716DB1FA81F149090091002A73DD04EB00
:105960004208E64614994FEA25391A1301FB09F952
:1059700013994FEA294901FB02F202990EEB2240EA
:1059800009FB01F11214415C019850F821100098B4
:1059900030BB0398D6F838C0002857D0B9F1000FB3
:1059A00054D0706D776B0590049807FB0900059F34
:1059B0009FB1F76B4FF0010A07FB09CC6AB1BAF14E
:1059C000000F0AD04FEA2059B76C00F07F60C9EB96
:1059D0002C5C07FB0CFC02FB0C00C0F38557013765
:1059E000880E29D000FB0770B4F800A04A0980098E
:1059F0000AF4FC6B4FEA112C02F4FC62C0F140097E
:105A00002AF4FC6AC1F3C4010CF4784C09FB0BFBCB
:105A10004CEA010109FB0AF900FB02BB4FF61F0229
:105A200000FB01914FEA9B1B02EA91110BF4FC6B06
:105A300041EA0B0BA4F800B0119A02341344444518
:105A4000129A15448ED107B0BDE8F08F776D049897
:105A5000B7F1000A18BF4FF0010AAFE7002100912B
:105A60007BE700BF2DE9F04F8BB006688F69199C6A
:105A7000199D246B2D6D0994A415DDF850C0601C90
:105A8000089503900868896805900291002D40F000
:105A9000EF801999496DB1FA81F149090491002A01
:105AA00040F3CB8006EB420201930692029A013248
:105AB0000792019B4FEA2C381813179B03FB00F049
:105AC000189B03FB08F8049B01134FEA2832FBB92B
:105AD000199B0014D3F838E0089B002B40F0B080ED
